{
  "_format": "hh-sol-artifact-1",
  "contractName": "SnarkyMonstersGame",
  "sourceName": "contracts/SnarkyMonstersGame.sol",
  "abi": [
    {
      "inputs": [
        {
          "internalType": "address",
          "name": "verifierAddress",
          "type": "address"
        }
      ],
      "stateMutability": "nonpayable",
      "type": "constructor"
    },
    {
      "anonymous": false,
      "inputs": [
        {
          "indexed": true,
          "internalType": "uint256",
          "name": "gameId",
          "type": "uint256"
        },
        {
          "indexed": false,
          "internalType": "bool",
          "name": "isValid",
          "type": "bool"
        }
      ],
      "name": "GameCertification",
      "type": "event"
    },
    {
      "anonymous": false,
      "inputs": [
        {
          "indexed": true,
          "internalType": "uint256",
          "name": "gameId",
          "type": "uint256"
        }
      ],
      "name": "GameSubmitted",
      "type": "event"
    },
    {
      "inputs": [
        {
          "internalType": "uint256",
          "name": "gameId",
          "type": "uint256"
        },
        {
          "internalType": "bytes",
          "name": "proof",
          "type": "bytes"
        },
        {
          "internalType": "uint256[]",
          "name": "pubSignals",
          "type": "uint256[]"
        }
      ],
      "name": "certifyGame",
      "outputs": [],
      "stateMutability": "nonpayable",
      "type": "function"
    },
    {
      "inputs": [
        {
          "internalType": "uint256",
          "name": "gameId",
          "type": "uint256"
        }
      ],
      "name": "checkGameSubmitted",
      "outputs": [
        {
          "internalType": "bool",
          "name": "",
          "type": "bool"
        }
      ],
      "stateMutability": "view",
      "type": "function"
    },
    {
      "inputs": [
        {
          "internalType": "uint256",
          "name": "gameId",
          "type": "uint256"
        }
      ],
      "name": "checkGameVerified",
      "outputs": [
        {
          "internalType": "bool",
          "name": "",
          "type": "bool"
        }
      ],
      "stateMutability": "view",
      "type": "function"
    },
    {
      "inputs": [
        {
          "internalType": "uint256",
          "name": "",
          "type": "uint256"
        }
      ],
      "name": "games",
      "outputs": [
        {
          "internalType": "address",
          "name": "user",
          "type": "address"
        },
        {
          "internalType": "uint256",
          "name": "gameHash",
          "type": "uint256"
        },
        {
          "internalType": "bool",
          "name": "verified",
          "type": "bool"
        }
      ],
      "stateMutability": "view",
      "type": "function"
    },
    {
      "inputs": [],
      "name": "getTopScores",
      "outputs": [
        {
          "components": [
            {
              "internalType": "address",
              "name": "user",
              "type": "address"
            },
            {
              "internalType": "uint256",
              "name": "wins",
              "type": "uint256"
            },
            {
              "internalType": "bool",
              "name": "isEntry",
              "type": "bool"
            }
          ],
          "internalType": "struct SnarkyMonstersGame.BoardEntry[]",
          "name": "",
          "type": "tuple[]"
        }
      ],
      "stateMutability": "view",
      "type": "function"
    },
    {
      "inputs": [
        {
          "internalType": "address",
          "name": "",
          "type": "address"
        }
      ],
      "name": "leaderboard",
      "outputs": [
        {
          "internalType": "address",
          "name": "user",
          "type": "address"
        },
        {
          "internalType": "uint256",
          "name": "wins",
          "type": "uint256"
        },
        {
          "internalType": "bool",
          "name": "isEntry",
          "type": "bool"
        }
      ],
      "stateMutability": "view",
      "type": "function"
    },
    {
      "inputs": [
        {
          "internalType": "uint256",
          "name": "gameId",
          "type": "uint256"
        },
        {
          "internalType": "uint256",
          "name": "gameHash",
          "type": "uint256"
        }
      ],
      "name": "submitGame",
      "outputs": [],
      "stateMutability": "nonpayable",
      "type": "function"
    },
    {
      "inputs": [],
      "name": "verifierContract",
      "outputs": [
        {
          "internalType": "contract Verifier",
          "name": "",
          "type": "address"
        }
      ],
      "stateMutability": "view",
      "type": "function"
    }
  ],
  "bytecode": "0x60806040523480156200001157600080fd5b5060405162001edc38038062001edc8339818101604052810190620000379190620000e9565b80600360006101000a81548173ffffffffffffffffffffffffffffffffffffffff021916908373ffffffffffffffffffffffffffffffffffffffff160217905550506200011b565b600080fd5b600073ffffffffffffffffffffffffffffffffffffffff82169050919050565b6000620000b18262000084565b9050919050565b620000c381620000a4565b8114620000cf57600080fd5b50565b600081519050620000e381620000b8565b92915050565b6000602082840312156200010257620001016200007f565b5b60006200011284828501620000d2565b91505092915050565b611db1806200012b6000396000f3fe608060405234801561001057600080fd5b50600436106100885760003560e01c80639476a0251161005b5780639476a0251461013b578063cf69568814610157578063d1d33d2014610175578063ee5c4e5d146101a757610088565b80630e2bdce01461008d578063117a5b90146100bd57806314bd702e146100ef5780637e03ac031461010b575b600080fd5b6100a760048036038101906100a29190611306565b6101c5565b6040516100b4919061134e565b60405180910390f35b6100d760048036038101906100d29190611306565b610234565b6040516100e6939291906113b9565b60405180910390f35b610109600480360381019061010491906115fe565b61028b565b005b61012560048036038101906101209190611306565b6106fb565b604051610132919061134e565b60405180910390f35b61015560048036038101906101509190611689565b610728565b005b61015f6108b9565b60405161016c9190611728565b60405180910390f35b61018f600480360381019061018a919061176f565b6108df565b60405161019e939291906113b9565b60405180910390f35b6101af610936565b6040516101bc91906118ba565b60405180910390f35b60008073ffffffffffffffffffffffffffffffffffffffff166001600084815260200190815260200160002060000160009054906101000a900473ffffffffffffffffffffffffffffffffffffffff1673ffffffffffffffffffffffffffffffffffffffff1614159050919050565b60016020528060005260406000206000915090508060000160009054906101000a900473ffffffffffffffffffffffffffffffffffffffff16908060010154908060020160009054906101000a900460ff16905083565b6001600084815260200190815260200160002060020160009054906101000a900460ff16156102ef576040517f08c379a00000000000000000000000000000000000000000000000000000000081526004016102e690611939565b60405180910390fd5b828160018151811061030457610303611959565b5b60200260200101511461034c576040517f08c379a0000000000000000000000000000000000000000000000000000000008152600401610343906119fa565b60405180910390fd5b6000600360009054906101000a900473ffffffffffffffffffffffffffffffffffffffff1673ffffffffffffffffffffffffffffffffffffffff16631e8e1e1384846040518363ffffffff1660e01b81526004016103ab929190611b48565b602060405180830381865afa1580156103c8573d6000803e3d6000fd5b505050506040513d601f19601f820116820180604052508101906103ec9190611bab565b905080156106bd5760006001600086815260200190815260200160002060000160009054906101000a900473ffffffffffffffffffffffffffffffffffffffff1690506000600260008373ffffffffffffffffffffffffffffffffffffffff1673ffffffffffffffffffffffffffffffffffffffff1681526020019081526020016000206040518060600160405290816000820160009054906101000a900473ffffffffffffffffffffffffffffffffffffffff1673ffffffffffffffffffffffffffffffffffffffff1673ffffffffffffffffffffffffffffffffffffffff168152602001600182015481526020016002820160009054906101000a900460ff1615151515815250509050600180600088815260200190815260200160002060020160006101000a81548160ff02191690831515021790555080604001511561058f576001600260008473ffffffffffffffffffffffffffffffffffffffff1673ffffffffffffffffffffffffffffffffffffffff16815260200190815260200160002060010160008282546105839190611c07565b925050819055506105ed565b6001816040019015159081151581525050600181602001818152505081816000019073ffffffffffffffffffffffffffffffffffffffff16908173ffffffffffffffffffffffffffffffffffffffff16815250506105ec81610a10565b5b6106ba600260008473ffffffffffffffffffffffffffffffffffffffff1673ffffffffffffffffffffffffffffffffffffffff1681526020019081526020016000206040518060600160405290816000820160009054906101000a900473ffffffffffffffffffffffffffffffffffffffff1673ffffffffffffffffffffffffffffffffffffffff1673ffffffffffffffffffffffffffffffffffffffff168152602001600182015481526020016002820160009054906101000a900460ff161515151581525050610b24565b50505b837f36e032d9dcd45d7f1f669c92e517d277d0607bbc94bcf808bcfdfee8b74b177c826040516106ed919061134e565b60405180910390a250505050565b60006001600083815260200190815260200160002060020160009054906101000a900460ff169050919050565b600073ffffffffffffffffffffffffffffffffffffffff166001600084815260200190815260200160002060000160009054906101000a900473ffffffffffffffffffffffffffffffffffffffff1673ffffffffffffffffffffffffffffffffffffffff16146107cd576040517f08c379a00000000000000000000000000000000000000000000000000000000081526004016107c490611c87565b60405180910390fd5b60405180606001604052803373ffffffffffffffffffffffffffffffffffffffff168152602001828152602001600015158152506001600084815260200190815260200160002060008201518160000160006101000a81548173ffffffffffffffffffffffffffffffffffffffff021916908373ffffffffffffffffffffffffffffffffffffffff1602179055506020820151816001015560408201518160020160006101000a81548160ff021916908315150217905550905050817fde4fde0472dca20f6c552c7d30e53608bc17a844eedcfed204ef9c78f02743f960405160405180910390a25050565b600360009054906101000a900473ffffffffffffffffffffffffffffffffffffffff1681565b60026020528060005260406000206000915090508060000160009054906101000a900473ffffffffffffffffffffffffffffffffffffffff16908060010154908060020160009054906101000a900460ff16905083565b60606000805480602002602001604051908101604052809291908181526020016000905b82821015610a0757838290600052602060002090600302016040518060600160405290816000820160009054906101000a900473ffffffffffffffffffffffffffffffffffffffff1673ffffffffffffffffffffffffffffffffffffffff1673ffffffffffffffffffffffffffffffffffffffff168152602001600182015481526020016002820160009054906101000a900460ff1615151515815250508152602001906001019061095a565b50505050905090565b60026000826000015173ffffffffffffffffffffffffffffffffffffffff1673ffffffffffffffffffffffffffffffffffffffff16815260200190815260200160002060020160009054906101000a900460ff16610b21578060026000836000015173ffffffffffffffffffffffffffffffffffffffff1673ffffffffffffffffffffffffffffffffffffffff16815260200190815260200160002060008201518160000160006101000a81548173ffffffffffffffffffffffffffffffffffffffff021916908373ffffffffffffffffffffffffffffffffffffffff1602179055506020820151816001015560408201518160020160006101000a81548160ff0219169083151502179055509050505b50565b60146000805490501080610b60575060008081548110610b4757610b46611959565b5b9060005260206000209060030201600101548160200151115b156112b35760007fffffffffffffffffffffffffffffffffffffffffffffffffffffffffffffffff905060005b600080549050811015610c5b57826000015173ffffffffffffffffffffffffffffffffffffffff1660008281548110610bc957610bc8611959565b5b906000526020600020906003020160000160009054906101000a900473ffffffffffffffffffffffffffffffffffffffff1673ffffffffffffffffffffffffffffffffffffffff1603610c4857809150826020015160008281548110610c3257610c31611959565b5b9060005260206000209060030201600101819055505b8080610c5390611ca7565b915050610b8d565b507fffffffffffffffffffffffffffffffffffffffffffffffffffffffffffffffff8114610f5c57600081905060008103610c975750506112b9565b5b6000600182610ca79190611cef565b81548110610cb857610cb7611959565b5b90600052602060002090600302016001015460008281548110610cde57610cdd611959565b5b906000526020600020906003020160010154118015610cfd5750600081115b15610f5557600080600183610d129190611cef565b81548110610d2357610d22611959565b5b90600052602060002090600302016040518060600160405290816000820160009054906101000a900473ffffffffffffffffffffffffffffffffffffffff1673ffffffffffffffffffffffffffffffffffffffff1673ffffffffffffffffffffffffffffffffffffffff168152602001600182015481526020016002820160009054906101000a900460ff161515151581525050905060008281548110610dcd57610dcc611959565b5b90600052602060002090600302016000600184610dea9190611cef565b81548110610dfb57610dfa611959565b5b90600052602060002090600302016000820160009054906101000a900473ffffffffffffffffffffffffffffffffffffffff168160000160006101000a81548173ffffffffffffffffffffffffffffffffffffffff021916908373ffffffffffffffffffffffffffffffffffffffff160217905550600182015481600101556002820160009054906101000a900460ff168160020160006101000a81548160ff0219169083151502179055509050508060008381548110610ebf57610ebe611959565b5b906000526020600020906003020160008201518160000160006101000a81548173ffffffffffffffffffffffffffffffffffffffff021916908373ffffffffffffffffffffffffffffffffffffffff1602179055506020820151816001015560408201518160020160006101000a81548160ff0219169083151502179055509050508180610f4c90611d23565b92505050610c98565b50506112b9565b6000805b600080549050811015610fb95760008181548110610f8157610f80611959565b5b90600052602060002090600302016001015484602001511115610fa657809150610fb9565b8080610fb190611ca7565b915050610f60565b50600081148015610fcf57506000808054905014155b15610fdd5760008054905090505b6000600181600181540180825580915050039060005260206000209050506000600160008054905061100f9190611cef565b90505b8181111561111e5760006001826110299190611cef565b8154811061103a57611039611959565b5b90600052602060002090600302016000828154811061105c5761105b611959565b5b90600052602060002090600302016000820160009054906101000a900473ffffffffffffffffffffffffffffffffffffffff168160000160006101000a81548173ffffffffffffffffffffffffffffffffffffffff021916908373ffffffffffffffffffffffffffffffffffffffff160217905550600182015481600101556002820160009054906101000a900460ff168160020160006101000a81548160ff021916908315150217905550905050808061111690611d23565b915050611012565b50826000828154811061113457611133611959565b5b906000526020600020906003020160008201518160000160006101000a81548173ffffffffffffffffffffffffffffffffffffffff021916908373ffffffffffffffffffffffffffffffffffffffff1602179055506020820151816001015560408201518160020160006101000a81548160ff021916908315150217905550905050601460008054905011156112ac57600060016000805490506111d89190611cef565b815481106111e9576111e8611959565b5b9060005260206000209060030201600080820160006101000a81549073ffffffffffffffffffffffffffffffffffffffff021916905560018201600090556002820160006101000a81549060ff02191690555050600080548061124f5761124e611d4c565b5b6001900381819060005260206000209060030201600080820160006101000a81549073ffffffffffffffffffffffffffffffffffffffff021916905560018201600090556002820160006101000a81549060ff0219169055505090555b50506112b8565b6112b9565b5b50565b6000604051905090565b600080fd5b600080fd5b6000819050919050565b6112e3816112d0565b81146112ee57600080fd5b50565b600081359050611300816112da565b92915050565b60006020828403121561131c5761131b6112c6565b5b600061132a848285016112f1565b91505092915050565b60008115159050919050565b61134881611333565b82525050565b6000602082019050611363600083018461133f565b92915050565b600073ffffffffffffffffffffffffffffffffffffffff82169050919050565b600061139482611369565b9050919050565b6113a481611389565b82525050565b6113b3816112d0565b82525050565b60006060820190506113ce600083018661139b565b6113db60208301856113aa565b6113e8604083018461133f565b949350505050565b600080fd5b600080fd5b6000601f19601f8301169050919050565b7f4e487b7100000000000000000000000000000000000000000000000000000000600052604160045260246000fd5b611443826113fa565b810181811067ffffffffffffffff821117156114625761146161140b565b5b80604052505050565b60006114756112bc565b9050611481828261143a565b919050565b600067ffffffffffffffff8211156114a1576114a061140b565b5b6114aa826113fa565b9050602081019050919050565b82818337600083830152505050565b60006114d96114d484611486565b61146b565b9050828152602081018484840111156114f5576114f46113f5565b5b6115008482856114b7565b509392505050565b600082601f83011261151d5761151c6113f0565b5b813561152d8482602086016114c6565b91505092915050565b600067ffffffffffffffff8211156115515761155061140b565b5b602082029050602081019050919050565b600080fd5b600061157a61157584611536565b61146b565b9050808382526020820190506020840283018581111561159d5761159c611562565b5b835b818110156115c657806115b288826112f1565b84526020840193505060208101905061159f565b5050509392505050565b600082601f8301126115e5576115e46113f0565b5b81356115f5848260208601611567565b91505092915050565b600080600060608486031215611617576116166112c6565b5b6000611625868287016112f1565b935050602084013567ffffffffffffffff811115611646576116456112cb565b5b61165286828701611508565b925050604084013567ffffffffffffffff811115611673576116726112cb565b5b61167f868287016115d0565b9150509250925092565b600080604083850312156116a05761169f6112c6565b5b60006116ae858286016112f1565b92505060206116bf858286016112f1565b9150509250929050565b6000819050919050565b60006116ee6116e96116e484611369565b6116c9565b611369565b9050919050565b6000611700826116d3565b9050919050565b6000611712826116f5565b9050919050565b61172281611707565b82525050565b600060208201905061173d6000830184611719565b92915050565b61174c81611389565b811461175757600080fd5b50565b60008135905061176981611743565b92915050565b600060208284031215611785576117846112c6565b5b60006117938482850161175a565b91505092915050565b600081519050919050565b600082825260208201905092915050565b6000819050602082019050919050565b6117d181611389565b82525050565b6117e0816112d0565b82525050565b6117ef81611333565b82525050565b60608201600082015161180b60008501826117c8565b50602082015161181e60208501826117d7565b50604082015161183160408501826117e6565b50505050565b600061184383836117f5565b60608301905092915050565b6000602082019050919050565b60006118678261179c565b61187181856117a7565b935061187c836117b8565b8060005b838110156118ad5781516118948882611837565b975061189f8361184f565b925050600181019050611880565b5085935050505092915050565b600060208201905081810360008301526118d4818461185c565b905092915050565b600082825260208201905092915050565b7f47616d6520616c72656164792076657269666965640000000000000000000000600082015250565b60006119236015836118dc565b915061192e826118ed565b602082019050919050565b6000602082019050818103600083015261195281611916565b9050919050565b7f4e487b7100000000000000000000000000000000000000000000000000000000600052603260045260246000fd5b7f47616d652069642073686f756c64206d6174636820746865207075626c69632060008201527f7369676e616c0000000000000000000000000000000000000000000000000000602082015250565b60006119e46026836118dc565b91506119ef82611988565b604082019050919050565b60006020820190508181036000830152611a13816119d7565b9050919050565b600081519050919050565b600082825260208201905092915050565b60005b83811015611a54578082015181840152602081019050611a39565b60008484015250505050565b6000611a6b82611a1a565b611a758185611a25565b9350611a85818560208601611a36565b611a8e816113fa565b840191505092915050565b600081519050919050565b600082825260208201905092915050565b6000819050602082019050919050565b6000611ad183836117d7565b60208301905092915050565b6000602082019050919050565b6000611af582611a99565b611aff8185611aa4565b9350611b0a83611ab5565b8060005b83811015611b3b578151611b228882611ac5565b9750611b2d83611add565b925050600181019050611b0e565b5085935050505092915050565b60006040820190508181036000830152611b628185611a60565b90508181036020830152611b768184611aea565b90509392505050565b611b8881611333565b8114611b9357600080fd5b50565b600081519050611ba581611b7f565b92915050565b600060208284031215611bc157611bc06112c6565b5b6000611bcf84828501611b96565b91505092915050565b7f4e487b7100000000000000000000000000000000000000000000000000000000600052601160045260246000fd5b6000611c12826112d0565b9150611c1d836112d0565b9250828201905080821115611c3557611c34611bd8565b5b92915050565b7f47616d6520616c72656164792065786973747300000000000000000000000000600082015250565b6000611c716013836118dc565b9150611c7c82611c3b565b602082019050919050565b60006020820190508181036000830152611ca081611c64565b9050919050565b6000611cb2826112d0565b91507fffffffffffffffffffffffffffffffffffffffffffffffffffffffffffffffff8203611ce457611ce3611bd8565b5b600182019050919050565b6000611cfa826112d0565b9150611d05836112d0565b9250828203905081811115611d1d57611d1c611bd8565b5b92915050565b6000611d2e826112d0565b915060008203611d4157611d40611bd8565b5b600182039050919050565b7f4e487b7100000000000000000000000000000000000000000000000000000000600052603160045260246000fdfea2646970667358221220eb94d35dfb9a5046397e05f04b910d579a60c187a15fca90c367e168f3b60d5764736f6c63430008110033",
  "linkReferences": {},
  "deployedLinkReferences": {}
}