{
  "_format": "hh-sol-artifact-1",
  "contractName": "SnarkyMonstersGame",
  "sourceName": "contracts/SnarkyMonstersGame.sol",
  "abi": [
    {
      "inputs": [
        {
          "internalType": "address",
          "name": "verifierAddress",
          "type": "address"
        }
      ],
      "stateMutability": "nonpayable",
      "type": "constructor"
    },
    {
      "anonymous": false,
      "inputs": [
        {
          "indexed": true,
          "internalType": "uint256",
          "name": "gameId",
          "type": "uint256"
        },
        {
          "indexed": false,
          "internalType": "bool",
          "name": "isValid",
          "type": "bool"
        }
      ],
      "name": "GameCertification",
      "type": "event"
    },
    {
      "anonymous": false,
      "inputs": [
        {
          "indexed": true,
          "internalType": "uint256",
          "name": "gameId",
          "type": "uint256"
        }
      ],
      "name": "GameSubmitted",
      "type": "event"
    },
    {
      "inputs": [
        {
          "internalType": "uint256",
          "name": "gameId",
          "type": "uint256"
        },
        {
          "internalType": "bytes",
          "name": "proof",
          "type": "bytes"
        },
        {
          "internalType": "uint256[]",
          "name": "pubSignals",
          "type": "uint256[]"
        }
      ],
      "name": "certifyGame",
      "outputs": [],
      "stateMutability": "nonpayable",
      "type": "function"
    },
    {
      "inputs": [
        {
          "internalType": "uint256",
          "name": "gameId",
          "type": "uint256"
        }
      ],
      "name": "checkGameSubmitted",
      "outputs": [
        {
          "internalType": "bool",
          "name": "",
          "type": "bool"
        }
      ],
      "stateMutability": "view",
      "type": "function"
    },
    {
      "inputs": [
        {
          "internalType": "uint256",
          "name": "gameId",
          "type": "uint256"
        }
      ],
      "name": "checkGameVerified",
      "outputs": [
        {
          "internalType": "bool",
          "name": "",
          "type": "bool"
        }
      ],
      "stateMutability": "view",
      "type": "function"
    },
    {
      "inputs": [
        {
          "internalType": "uint256",
          "name": "",
          "type": "uint256"
        }
      ],
      "name": "games",
      "outputs": [
        {
          "internalType": "address",
          "name": "user",
          "type": "address"
        },
        {
          "internalType": "bytes32",
          "name": "gameHash",
          "type": "bytes32"
        },
        {
          "internalType": "bool",
          "name": "verified",
          "type": "bool"
        }
      ],
      "stateMutability": "view",
      "type": "function"
    },
    {
      "inputs": [],
      "name": "getTopScores",
      "outputs": [
        {
          "components": [
            {
              "internalType": "address",
              "name": "user",
              "type": "address"
            },
            {
              "internalType": "uint256",
              "name": "wins",
              "type": "uint256"
            },
            {
              "internalType": "bool",
              "name": "isEntry",
              "type": "bool"
            }
          ],
          "internalType": "struct SnarkyMonstersGame.BoardEntry[]",
          "name": "",
          "type": "tuple[]"
        }
      ],
      "stateMutability": "view",
      "type": "function"
    },
    {
      "inputs": [
        {
          "internalType": "address",
          "name": "",
          "type": "address"
        }
      ],
      "name": "leaderboard",
      "outputs": [
        {
          "internalType": "address",
          "name": "user",
          "type": "address"
        },
        {
          "internalType": "uint256",
          "name": "wins",
          "type": "uint256"
        },
        {
          "internalType": "bool",
          "name": "isEntry",
          "type": "bool"
        }
      ],
      "stateMutability": "view",
      "type": "function"
    },
    {
      "inputs": [
        {
          "internalType": "uint256",
          "name": "gameId",
          "type": "uint256"
        },
        {
          "internalType": "bytes32",
          "name": "gameHash",
          "type": "bytes32"
        }
      ],
      "name": "submitGame",
      "outputs": [],
      "stateMutability": "nonpayable",
      "type": "function"
    },
    {
      "inputs": [],
      "name": "verifierContract",
      "outputs": [
        {
          "internalType": "contract Verifier",
          "name": "",
          "type": "address"
        }
      ],
      "stateMutability": "view",
      "type": "function"
    }
  ],
  "bytecode": "0x60806040523480156200001157600080fd5b5060405162001f5838038062001f588339818101604052810190620000379190620000e9565b80600360006101000a81548173ffffffffffffffffffffffffffffffffffffffff021916908373ffffffffffffffffffffffffffffffffffffffff160217905550506200011b565b600080fd5b600073ffffffffffffffffffffffffffffffffffffffff82169050919050565b6000620000b18262000084565b9050919050565b620000c381620000a4565b8114620000cf57600080fd5b50565b600081519050620000e381620000b8565b92915050565b6000602082840312156200010257620001016200007f565b5b60006200011284828501620000d2565b91505092915050565b611e2d806200012b6000396000f3fe608060405234801561001057600080fd5b50600436106100885760003560e01c80637e03ac031161005b5780637e03ac0314610127578063cf69568814610157578063d1d33d2014610175578063ee5c4e5d146101a757610088565b80630e2bdce01461008d578063117a5b90146100bd57806314bd702e146100ef5780631b1e76cf1461010b575b600080fd5b6100a760048036038101906100a29190611306565b6101c5565b6040516100b4919061134e565b60405180910390f35b6100d760048036038101906100d29190611306565b610234565b6040516100e6939291906113c3565b60405180910390f35b61010960048036038101906101049190611608565b61028b565b005b610125600480360381019061012091906116bf565b6106fb565b005b610141600480360381019061013c9190611306565b61088c565b60405161014e919061134e565b60405180910390f35b61015f6108b9565b60405161016c919061175e565b60405180910390f35b61018f600480360381019061018a91906117a5565b6108df565b60405161019e939291906117e1565b60405180910390f35b6101af610936565b6040516101bc9190611936565b60405180910390f35b60008073ffffffffffffffffffffffffffffffffffffffff166001600084815260200190815260200160002060000160009054906101000a900473ffffffffffffffffffffffffffffffffffffffff1673ffffffffffffffffffffffffffffffffffffffff1614159050919050565b60016020528060005260406000206000915090508060000160009054906101000a900473ffffffffffffffffffffffffffffffffffffffff16908060010154908060020160009054906101000a900460ff16905083565b6001600084815260200190815260200160002060020160009054906101000a900460ff16156102ef576040517f08c379a00000000000000000000000000000000000000000000000000000000081526004016102e6906119b5565b60405180910390fd5b8281600181518110610304576103036119d5565b5b60200260200101511461034c576040517f08c379a000000000000000000000000000000000000000000000000000000000815260040161034390611a76565b60405180910390fd5b6000600360009054906101000a900473ffffffffffffffffffffffffffffffffffffffff1673ffffffffffffffffffffffffffffffffffffffff16631e8e1e1384846040518363ffffffff1660e01b81526004016103ab929190611bc4565b602060405180830381865afa1580156103c8573d6000803e3d6000fd5b505050506040513d601f19601f820116820180604052508101906103ec9190611c27565b905080156106bd5760006001600086815260200190815260200160002060000160009054906101000a900473ffffffffffffffffffffffffffffffffffffffff1690506000600260008373ffffffffffffffffffffffffffffffffffffffff1673ffffffffffffffffffffffffffffffffffffffff1681526020019081526020016000206040518060600160405290816000820160009054906101000a900473ffffffffffffffffffffffffffffffffffffffff1673ffffffffffffffffffffffffffffffffffffffff1673ffffffffffffffffffffffffffffffffffffffff168152602001600182015481526020016002820160009054906101000a900460ff1615151515815250509050600180600088815260200190815260200160002060020160006101000a81548160ff02191690831515021790555080604001511561058f576001600260008473ffffffffffffffffffffffffffffffffffffffff1673ffffffffffffffffffffffffffffffffffffffff16815260200190815260200160002060010160008282546105839190611c83565b925050819055506105ed565b6001816040019015159081151581525050600181602001818152505081816000019073ffffffffffffffffffffffffffffffffffffffff16908173ffffffffffffffffffffffffffffffffffffffff16815250506105ec81610a10565b5b6106ba600260008473ffffffffffffffffffffffffffffffffffffffff1673ffffffffffffffffffffffffffffffffffffffff1681526020019081526020016000206040518060600160405290816000820160009054906101000a900473ffffffffffffffffffffffffffffffffffffffff1673ffffffffffffffffffffffffffffffffffffffff1673ffffffffffffffffffffffffffffffffffffffff168152602001600182015481526020016002820160009054906101000a900460ff161515151581525050610b24565b50505b837f36e032d9dcd45d7f1f669c92e517d277d0607bbc94bcf808bcfdfee8b74b177c826040516106ed919061134e565b60405180910390a250505050565b600073ffffffffffffffffffffffffffffffffffffffff166001600084815260200190815260200160002060000160009054906101000a900473ffffffffffffffffffffffffffffffffffffffff1673ffffffffffffffffffffffffffffffffffffffff16146107a0576040517f08c379a000000000000000000000000000000000000000000000000000000000815260040161079790611d03565b60405180910390fd5b60405180606001604052803373ffffffffffffffffffffffffffffffffffffffff168152602001828152602001600015158152506001600084815260200190815260200160002060008201518160000160006101000a81548173ffffffffffffffffffffffffffffffffffffffff021916908373ffffffffffffffffffffffffffffffffffffffff1602179055506020820151816001015560408201518160020160006101000a81548160ff021916908315150217905550905050817fde4fde0472dca20f6c552c7d30e53608bc17a844eedcfed204ef9c78f02743f960405160405180910390a25050565b60006001600083815260200190815260200160002060020160009054906101000a900460ff169050919050565b600360009054906101000a900473ffffffffffffffffffffffffffffffffffffffff1681565b60026020528060005260406000206000915090508060000160009054906101000a900473ffffffffffffffffffffffffffffffffffffffff16908060010154908060020160009054906101000a900460ff16905083565b60606000805480602002602001604051908101604052809291908181526020016000905b82821015610a0757838290600052602060002090600302016040518060600160405290816000820160009054906101000a900473ffffffffffffffffffffffffffffffffffffffff1673ffffffffffffffffffffffffffffffffffffffff1673ffffffffffffffffffffffffffffffffffffffff168152602001600182015481526020016002820160009054906101000a900460ff1615151515815250508152602001906001019061095a565b50505050905090565b60026000826000015173ffffffffffffffffffffffffffffffffffffffff1673ffffffffffffffffffffffffffffffffffffffff16815260200190815260200160002060020160009054906101000a900460ff16610b21578060026000836000015173ffffffffffffffffffffffffffffffffffffffff1673ffffffffffffffffffffffffffffffffffffffff16815260200190815260200160002060008201518160000160006101000a81548173ffffffffffffffffffffffffffffffffffffffff021916908373ffffffffffffffffffffffffffffffffffffffff1602179055506020820151816001015560408201518160020160006101000a81548160ff0219169083151502179055509050505b50565b60146000805490501080610b60575060008081548110610b4757610b466119d5565b5b9060005260206000209060030201600101548160200151115b156112b35760007fffffffffffffffffffffffffffffffffffffffffffffffffffffffffffffffff905060005b600080549050811015610c5b57826000015173ffffffffffffffffffffffffffffffffffffffff1660008281548110610bc957610bc86119d5565b5b906000526020600020906003020160000160009054906101000a900473ffffffffffffffffffffffffffffffffffffffff1673ffffffffffffffffffffffffffffffffffffffff1603610c4857809150826020015160008281548110610c3257610c316119d5565b5b9060005260206000209060030201600101819055505b8080610c5390611d23565b915050610b8d565b507fffffffffffffffffffffffffffffffffffffffffffffffffffffffffffffffff8114610f5c57600081905060008103610c975750506112b9565b5b6000600182610ca79190611d6b565b81548110610cb857610cb76119d5565b5b90600052602060002090600302016001015460008281548110610cde57610cdd6119d5565b5b906000526020600020906003020160010154118015610cfd5750600081115b15610f5557600080600183610d129190611d6b565b81548110610d2357610d226119d5565b5b90600052602060002090600302016040518060600160405290816000820160009054906101000a900473ffffffffffffffffffffffffffffffffffffffff1673ffffffffffffffffffffffffffffffffffffffff1673ffffffffffffffffffffffffffffffffffffffff168152602001600182015481526020016002820160009054906101000a900460ff161515151581525050905060008281548110610dcd57610dcc6119d5565b5b90600052602060002090600302016000600184610dea9190611d6b565b81548110610dfb57610dfa6119d5565b5b90600052602060002090600302016000820160009054906101000a900473ffffffffffffffffffffffffffffffffffffffff168160000160006101000a81548173ffffffffffffffffffffffffffffffffffffffff021916908373ffffffffffffffffffffffffffffffffffffffff160217905550600182015481600101556002820160009054906101000a900460ff168160020160006101000a81548160ff0219169083151502179055509050508060008381548110610ebf57610ebe6119d5565b5b906000526020600020906003020160008201518160000160006101000a81548173ffffffffffffffffffffffffffffffffffffffff021916908373ffffffffffffffffffffffffffffffffffffffff1602179055506020820151816001015560408201518160020160006101000a81548160ff0219169083151502179055509050508180610f4c90611d9f565b92505050610c98565b50506112b9565b6000805b600080549050811015610fb95760008181548110610f8157610f806119d5565b5b90600052602060002090600302016001015484602001511115610fa657809150610fb9565b8080610fb190611d23565b915050610f60565b50600081148015610fcf57506000808054905014155b15610fdd5760008054905090505b6000600181600181540180825580915050039060005260206000209050506000600160008054905061100f9190611d6b565b90505b8181111561111e5760006001826110299190611d6b565b8154811061103a576110396119d5565b5b90600052602060002090600302016000828154811061105c5761105b6119d5565b5b90600052602060002090600302016000820160009054906101000a900473ffffffffffffffffffffffffffffffffffffffff168160000160006101000a81548173ffffffffffffffffffffffffffffffffffffffff021916908373ffffffffffffffffffffffffffffffffffffffff160217905550600182015481600101556002820160009054906101000a900460ff168160020160006101000a81548160ff021916908315150217905550905050808061111690611d9f565b915050611012565b508260008281548110611134576111336119d5565b5b906000526020600020906003020160008201518160000160006101000a81548173ffffffffffffffffffffffffffffffffffffffff021916908373ffffffffffffffffffffffffffffffffffffffff1602179055506020820151816001015560408201518160020160006101000a81548160ff021916908315150217905550905050601460008054905011156112ac57600060016000805490506111d89190611d6b565b815481106111e9576111e86119d5565b5b9060005260206000209060030201600080820160006101000a81549073ffffffffffffffffffffffffffffffffffffffff021916905560018201600090556002820160006101000a81549060ff02191690555050600080548061124f5761124e611dc8565b5b6001900381819060005260206000209060030201600080820160006101000a81549073ffffffffffffffffffffffffffffffffffffffff021916905560018201600090556002820160006101000a81549060ff0219169055505090555b50506112b8565b6112b9565b5b50565b6000604051905090565b600080fd5b600080fd5b6000819050919050565b6112e3816112d0565b81146112ee57600080fd5b50565b600081359050611300816112da565b92915050565b60006020828403121561131c5761131b6112c6565b5b600061132a848285016112f1565b91505092915050565b60008115159050919050565b61134881611333565b82525050565b6000602082019050611363600083018461133f565b92915050565b600073ffffffffffffffffffffffffffffffffffffffff82169050919050565b600061139482611369565b9050919050565b6113a481611389565b82525050565b6000819050919050565b6113bd816113aa565b82525050565b60006060820190506113d8600083018661139b565b6113e560208301856113b4565b6113f2604083018461133f565b949350505050565b600080fd5b600080fd5b6000601f19601f8301169050919050565b7f4e487b7100000000000000000000000000000000000000000000000000000000600052604160045260246000fd5b61144d82611404565b810181811067ffffffffffffffff8211171561146c5761146b611415565b5b80604052505050565b600061147f6112bc565b905061148b8282611444565b919050565b600067ffffffffffffffff8211156114ab576114aa611415565b5b6114b482611404565b9050602081019050919050565b82818337600083830152505050565b60006114e36114de84611490565b611475565b9050828152602081018484840111156114ff576114fe6113ff565b5b61150a8482856114c1565b509392505050565b600082601f830112611527576115266113fa565b5b81356115378482602086016114d0565b91505092915050565b600067ffffffffffffffff82111561155b5761155a611415565b5b602082029050602081019050919050565b600080fd5b600061158461157f84611540565b611475565b905080838252602082019050602084028301858111156115a7576115a661156c565b5b835b818110156115d057806115bc88826112f1565b8452602084019350506020810190506115a9565b5050509392505050565b600082601f8301126115ef576115ee6113fa565b5b81356115ff848260208601611571565b91505092915050565b600080600060608486031215611621576116206112c6565b5b600061162f868287016112f1565b935050602084013567ffffffffffffffff8111156116505761164f6112cb565b5b61165c86828701611512565b925050604084013567ffffffffffffffff81111561167d5761167c6112cb565b5b611689868287016115da565b9150509250925092565b61169c816113aa565b81146116a757600080fd5b50565b6000813590506116b981611693565b92915050565b600080604083850312156116d6576116d56112c6565b5b60006116e4858286016112f1565b92505060206116f5858286016116aa565b9150509250929050565b6000819050919050565b600061172461171f61171a84611369565b6116ff565b611369565b9050919050565b600061173682611709565b9050919050565b60006117488261172b565b9050919050565b6117588161173d565b82525050565b6000602082019050611773600083018461174f565b92915050565b61178281611389565b811461178d57600080fd5b50565b60008135905061179f81611779565b92915050565b6000602082840312156117bb576117ba6112c6565b5b60006117c984828501611790565b91505092915050565b6117db816112d0565b82525050565b60006060820190506117f6600083018661139b565b61180360208301856117d2565b611810604083018461133f565b949350505050565b600081519050919050565b600082825260208201905092915050565b6000819050602082019050919050565b61184d81611389565b82525050565b61185c816112d0565b82525050565b61186b81611333565b82525050565b6060820160008201516118876000850182611844565b50602082015161189a6020850182611853565b5060408201516118ad6040850182611862565b50505050565b60006118bf8383611871565b60608301905092915050565b6000602082019050919050565b60006118e382611818565b6118ed8185611823565b93506118f883611834565b8060005b8381101561192957815161191088826118b3565b975061191b836118cb565b9250506001810190506118fc565b5085935050505092915050565b6000602082019050818103600083015261195081846118d8565b905092915050565b600082825260208201905092915050565b7f47616d6520616c72656164792076657269666965640000000000000000000000600082015250565b600061199f601583611958565b91506119aa82611969565b602082019050919050565b600060208201905081810360008301526119ce81611992565b9050919050565b7f4e487b7100000000000000000000000000000000000000000000000000000000600052603260045260246000fd5b7f47616d652069642073686f756c64206d6174636820746865207075626c69632060008201527f7369676e616c0000000000000000000000000000000000000000000000000000602082015250565b6000611a60602683611958565b9150611a6b82611a04565b604082019050919050565b60006020820190508181036000830152611a8f81611a53565b9050919050565b600081519050919050565b600082825260208201905092915050565b60005b83811015611ad0578082015181840152602081019050611ab5565b60008484015250505050565b6000611ae782611a96565b611af18185611aa1565b9350611b01818560208601611ab2565b611b0a81611404565b840191505092915050565b600081519050919050565b600082825260208201905092915050565b6000819050602082019050919050565b6000611b4d8383611853565b60208301905092915050565b6000602082019050919050565b6000611b7182611b15565b611b7b8185611b20565b9350611b8683611b31565b8060005b83811015611bb7578151611b9e8882611b41565b9750611ba983611b59565b925050600181019050611b8a565b5085935050505092915050565b60006040820190508181036000830152611bde8185611adc565b90508181036020830152611bf28184611b66565b90509392505050565b611c0481611333565b8114611c0f57600080fd5b50565b600081519050611c2181611bfb565b92915050565b600060208284031215611c3d57611c3c6112c6565b5b6000611c4b84828501611c12565b91505092915050565b7f4e487b7100000000000000000000000000000000000000000000000000000000600052601160045260246000fd5b6000611c8e826112d0565b9150611c99836112d0565b9250828201905080821115611cb157611cb0611c54565b5b92915050565b7f47616d6520616c72656164792065786973747300000000000000000000000000600082015250565b6000611ced601383611958565b9150611cf882611cb7565b602082019050919050565b60006020820190508181036000830152611d1c81611ce0565b9050919050565b6000611d2e826112d0565b91507fffffffffffffffffffffffffffffffffffffffffffffffffffffffffffffffff8203611d6057611d5f611c54565b5b600182019050919050565b6000611d76826112d0565b9150611d81836112d0565b9250828203905081811115611d9957611d98611c54565b5b92915050565b6000611daa826112d0565b915060008203611dbd57611dbc611c54565b5b600182039050919050565b7f4e487b7100000000000000000000000000000000000000000000000000000000600052603160045260246000fdfea2646970667358221220a36cff48b39705cde084eecaf4864af4d344c6d40e1114b9ffa5d461ebf4f56d64736f6c63430008110033",
  "linkReferences": {},
  "deployedLinkReferences": {}
}