{
  "_format": "hh-sol-artifact-1",
  "contractName": "SnarkyMonstersGame",
  "sourceName": "contracts/SnarkyMonstersGame.sol",
  "abi": [
    {
      "inputs": [
        {
          "internalType": "address",
          "name": "verifierAddress",
          "type": "address"
        }
      ],
      "stateMutability": "nonpayable",
      "type": "constructor"
    },
    {
      "anonymous": false,
      "inputs": [
        {
          "indexed": true,
          "internalType": "uint256",
          "name": "gameId",
          "type": "uint256"
        },
        {
          "indexed": false,
          "internalType": "bool",
          "name": "isValid",
          "type": "bool"
        }
      ],
      "name": "GameCertification",
      "type": "event"
    },
    {
      "anonymous": false,
      "inputs": [
        {
          "indexed": true,
          "internalType": "uint256",
          "name": "gameId",
          "type": "uint256"
        }
      ],
      "name": "GameSubmitted",
      "type": "event"
    },
    {
      "inputs": [
        {
          "internalType": "uint256",
          "name": "gameId",
          "type": "uint256"
        },
        {
          "internalType": "bytes",
          "name": "proof",
          "type": "bytes"
        },
        {
          "internalType": "uint256[]",
          "name": "pubSignals",
          "type": "uint256[]"
        }
      ],
      "name": "certifyGame",
      "outputs": [],
      "stateMutability": "nonpayable",
      "type": "function"
    },
    {
      "inputs": [
        {
          "internalType": "uint256",
          "name": "gameId",
          "type": "uint256"
        }
      ],
      "name": "checkGameSubmitted",
      "outputs": [
        {
          "internalType": "bool",
          "name": "",
          "type": "bool"
        }
      ],
      "stateMutability": "view",
      "type": "function"
    },
    {
      "inputs": [
        {
          "internalType": "uint256",
          "name": "gameId",
          "type": "uint256"
        }
      ],
      "name": "checkGameVerified",
      "outputs": [
        {
          "internalType": "bool",
          "name": "",
          "type": "bool"
        }
      ],
      "stateMutability": "view",
      "type": "function"
    },
    {
      "inputs": [
        {
          "internalType": "uint256",
          "name": "",
          "type": "uint256"
        }
      ],
      "name": "games",
      "outputs": [
        {
          "internalType": "address",
          "name": "user",
          "type": "address"
        },
        {
          "internalType": "uint256",
          "name": "gameHash",
          "type": "uint256"
        },
        {
          "internalType": "bool",
          "name": "verified",
          "type": "bool"
        }
      ],
      "stateMutability": "view",
      "type": "function"
    },
    {
      "inputs": [],
      "name": "getTopScores",
      "outputs": [
        {
          "components": [
            {
              "internalType": "address",
              "name": "user",
              "type": "address"
            },
            {
              "internalType": "uint256",
              "name": "wins",
              "type": "uint256"
            },
            {
              "internalType": "bool",
              "name": "isEntry",
              "type": "bool"
            }
          ],
          "internalType": "struct SnarkyMonstersGame.BoardEntry[]",
          "name": "",
          "type": "tuple[]"
        }
      ],
      "stateMutability": "view",
      "type": "function"
    },
    {
      "inputs": [
        {
          "internalType": "address",
          "name": "",
          "type": "address"
        }
      ],
      "name": "leaderboard",
      "outputs": [
        {
          "internalType": "address",
          "name": "user",
          "type": "address"
        },
        {
          "internalType": "uint256",
          "name": "wins",
          "type": "uint256"
        },
        {
          "internalType": "bool",
          "name": "isEntry",
          "type": "bool"
        }
      ],
      "stateMutability": "view",
      "type": "function"
    },
    {
      "inputs": [
        {
          "internalType": "uint256",
          "name": "gameId",
          "type": "uint256"
        },
        {
          "internalType": "uint256",
          "name": "gameHash",
          "type": "uint256"
        }
      ],
      "name": "submitGame",
      "outputs": [],
      "stateMutability": "nonpayable",
      "type": "function"
    },
    {
      "inputs": [],
      "name": "verifierContract",
      "outputs": [
        {
          "internalType": "contract Verifier",
          "name": "",
          "type": "address"
        }
      ],
      "stateMutability": "view",
      "type": "function"
    }
  ],
  "bytecode": "0x608060405234801561001057600080fd5b506040516110a73803806110a783398101604081905261002f91610054565b600380546001600160a01b0319166001600160a01b0392909216919091179055610084565b60006020828403121561006657600080fd5b81516001600160a01b038116811461007d57600080fd5b9392505050565b611014806100936000396000f3fe608060405234801561001057600080fd5b50600436106100885760003560e01c80639476a0251161005b5780639476a0251461016c578063cf6956881461017f578063d1d33d20146101aa578063ee5c4e5d146101e757600080fd5b80630e2bdce01461008d578063117a5b90146100cd57806314bd702e146101315780637e03ac0314610146575b600080fd5b6100b861009b366004610c26565b6000908152600160205260409020546001600160a01b0316151590565b60405190151581526020015b60405180910390f35b61010a6100db366004610c26565b60016020819052600091825260409091208054918101546002909101546001600160a01b039092169160ff1683565b604080516001600160a01b03909416845260208401929092521515908201526060016100c4565b61014461013f366004610d06565b6101fc565b005b6100b8610154366004610c26565b60009081526001602052604090206002015460ff1690565b61014461017a366004610dc6565b61052b565b600354610192906001600160a01b031681565b6040516001600160a01b0390911681526020016100c4565b61010a6101b8366004610de8565b60026020819052600091825260409091208054600182015491909201546001600160a01b039092169160ff1683565b6101ef610615565b6040516100c49190610e18565b60008381526001602052604090206002015460ff161561025b5760405162461bcd60e51b815260206004820152601560248201527411d85b5948185b1c9958591e481d995c9a599a5959605a1b60448201526064015b60405180910390fd5b60008381526001602081905260408220015482519091839161027f5761027f610e7c565b6020026020010151146102cd5760405162461bcd60e51b815260206004820152601660248201527508ec2daca40d0c2e6d040c8de40dcdee840dac2e8c6d60531b6044820152606401610252565b82816001815181106102e1576102e1610e7c565b6020026020010151146103455760405162461bcd60e51b815260206004820152602660248201527f47616d652069642073686f756c64206d6174636820746865207075626c6963206044820152651cda59db985b60d21b6064820152608401610252565b600354604051631e8e1e1360e01b81526000916001600160a01b031690631e8e1e13906103789086908690600401610e92565b60206040518083038186803b15801561039057600080fd5b505afa1580156103a4573d6000803e3d6000fd5b505050506040513d601f19601f820116820180604052508101906103c89190610f2f565b905080156104e957600084815260016020818152604080842080546001600160a01b039081168087526002808652848820855160608101875281549094168452808801548488015281015460ff161515948301948552968b9052938590529401805460ff1916909317909255905190919015610477576001600160a01b0382166000908152600260205260408120600190810180549192909161046c908490610f67565b9091555061049a9050565b60016040820181905260208201526001600160a01b038216815261049a8161069c565b6001600160a01b03808316600090815260026020818152604092839020835160608101855281549095168552600181015491850191909152015460ff161515908201526104e690610717565b50505b837f36e032d9dcd45d7f1f669c92e517d277d0607bbc94bcf808bcfdfee8b74b177c8260405161051d911515815260200190565b60405180910390a250505050565b6000828152600160205260409020546001600160a01b0316156105865760405162461bcd60e51b815260206004820152601360248201527247616d6520616c72656164792065786973747360681b6044820152606401610252565b6040805160608101825233815260208082018481526000838501818152878252600193849052858220945185546001600160a01b0319166001600160a01b03909116178555915192840192909255516002909201805460ff191692151592909217909155905183917fde4fde0472dca20f6c552c7d30e53608bc17a844eedcfed204ef9c78f02743f991a25050565b60606000805480602002602001604051908101604052809291908181526020016000905b82821015610693576000848152602090819020604080516060810182526003860290920180546001600160a01b031683526001808201548486015260029091015460ff161515918301919091529083529092019101610639565b50505050905090565b80516001600160a01b03166000908152600260208190526040909120015460ff166107145780516001600160a01b03908116600090815260026020818152604092839020855181546001600160a01b03191695169490941784558401516001840155908301519101805460ff19169115159190911790555b50565b6000546014118061074f57506000808154811061073657610736610e7c565b9060005260206000209060030201600101548160200151115b156107145760001960005b6000548110156107e85782600001516001600160a01b03166000828154811061078557610785610e7c565b60009182526020909120600390910201546001600160a01b031614156107d6578091508260200151600082815481106107c0576107c0610e7c565b9060005260206000209060030201600101819055505b806107e081610f7f565b91505061075a565b5080600019146109de5780806107fd57505050565b600061080a600183610f9a565b8154811061081a5761081a610e7c565b9060005260206000209060030201600101546000828154811061083f5761083f610e7c565b90600052602060002090600302016001015411801561085e5750600081115b156109d957600080610871600184610f9a565b8154811061088157610881610e7c565b6000918252602080832060408051606081018252600390940290910180546001600160a01b0316845260018101549284019290925260029091015460ff161515908201528154909250839081106108da576108da610e7c565b906000526020600020906003020160006001846108f79190610f9a565b8154811061090757610907610e7c565b600091825260208220835460039092020180546001600160a01b0319166001600160a01b03909216919091178155600180840154908201556002928301549201805460ff909316151560ff199093169290921790915580548291908490811061097257610972610e7c565b600091825260209182902083516003929092020180546001600160a01b0319166001600160a01b039092169190911781559082015160018201556040909101516002909101805460ff1916911515919091179055816109d081610fb1565b925050506107fd565b505050565b6000805b600054811015610a3657600081815481106109ff576109ff610e7c565b90600052602060002090600302016001015484602001511115610a2457809150610a36565b80610a2e81610f7f565b9150506109e2565b5080158015610a46575060005415155b15610a5057506000545b600080546001908101808355828052610a699190610f9a565b90505b81811115610b1a576000610a81600183610f9a565b81548110610a9157610a91610e7c565b906000526020600020906003020160008281548110610ab257610ab2610e7c565b60009182526020909120825460039092020180546001600160a01b0319166001600160a01b03909216919091178155600180830154908201556002918201549101805460ff909216151560ff1990921691909117905580610b1281610fb1565b915050610a6c565b508260008281548110610b2f57610b2f610e7c565b6000918252602080832084516003939093020180546001600160a01b0319166001600160a01b0390931692909217825583015160018201556040909201516002909201805460ff19169215159290921790915554601410156109d95760008054610b9b90600190610f9a565b81548110610bab57610bab610e7c565b60009182526020822060039091020180546001600160a01b031916815560018101829055600201805460ff19169055805480610be957610be9610fc8565b60008281526020812060036000199093019283020180546001600160a01b03191681556001810191909155600201805460ff191690559055505050565b600060208284031215610c3857600080fd5b5035919050565b634e487b7160e01b600052604160045260246000fd5b604051601f8201601f1916810167ffffffffffffffff81118282101715610c7e57610c7e610c3f565b604052919050565b600082601f830112610c9757600080fd5b8135602067ffffffffffffffff821115610cb357610cb3610c3f565b8160051b610cc2828201610c55565b9283528481018201928281019087851115610cdc57600080fd5b83870192505b84831015610cfb57823582529183019190830190610ce2565b979650505050505050565b600080600060608486031215610d1b57600080fd5b8335925060208085013567ffffffffffffffff80821115610d3b57600080fd5b818701915087601f830112610d4f57600080fd5b813581811115610d6157610d61610c3f565b610d73601f8201601f19168501610c55565b8181528985838601011115610d8757600080fd5b818585018683013760009181019094015291935060408601359180831115610dae57600080fd5b5050610dbc86828701610c86565b9150509250925092565b60008060408385031215610dd957600080fd5b50508035926020909101359150565b600060208284031215610dfa57600080fd5b81356001600160a01b0381168114610e1157600080fd5b9392505050565b602080825282518282018190526000919060409081850190868401855b82811015610e6f57815180516001600160a01b03168552868101518786015285015115158585015260609093019290850190600101610e35565b5091979650505050505050565b634e487b7160e01b600052603260045260246000fd5b604081526000835180604084015260005b81811015610ec05760208187018101516060868401015201610ea3565b81811115610ed2576000606083860101525b50601f01601f1916820182810360609081016020808601919091528551918301829052858101926000926080909101905b80841015610f235784518252938201936001939093019290820190610f03565b50979650505050505050565b600060208284031215610f4157600080fd5b81518015158114610e1157600080fd5b634e487b7160e01b600052601160045260246000fd5b60008219821115610f7a57610f7a610f51565b500190565b6000600019821415610f9357610f93610f51565b5060010190565b600082821015610fac57610fac610f51565b500390565b600081610fc057610fc0610f51565b506000190190565b634e487b7160e01b600052603160045260246000fdfea2646970667358221220c27af1ca8a54deda2cdfc2977e26af126b34eb5cbe003117b23b8bec1fba556064736f6c63430008090033",
  "linkReferences": {},
  "deployedLinkReferences": {}
}